:1000000012C0189518951895189518951895189563
:100010001895D8C0189544C0189518951895189536
:100020001895189518958FE58DBFC0E1E8E84E2E1C
:1000300084E08EBFD4E0F3E05F2EA89584B7082E4D
:10004000877F84BF88E1992781BD91BDEEEFF3E002
:10005000A0E6B0E088278D933197E9F78FE889B95A
:1000600080E080BD88E18AB96624B89AA09AA19AF6
:10007000A29AA39A8B9A8A9A929ABA9AB99AC19A90
:10008000BB9A8A98929A8F98979A8B9A8C9A9398FF
:10009000949885E083BF85E083BF579A7894C2C760
:1000A0000F921F922F923F924F925F927F92AF9248
:1000B000BF920F931F932F933F934F935F936F9331
:1000C0007F938F939F93AF93BF93CF93DF93EF93E0
:1000D000FF938FB78F93ADE9B2E08CB18C9384E23C
:1000E000482F00919D02041709F00AC07091DE01AB
:1000F00070687093DE01A8E3B2E088278C9345C056
:100100000D3009F02EC0AEEDB1E08C9187FB0EF002
:1001100027C07091DE017F777093DE0180E0A8E355
:10012000B2E05ED88D9388278C93E8E3F2E0AEE9E5
:10013000B2E08AD97091DE0170647093DE01AEE99D
:10014000B2E0A6D9082F043009F00AC070916C0003
:10015000726070936C007091DE017F7B7093DE01A2
:1001600014C00F3110F009F001C00FC0AEEDB1E0C6
:100170008C9187FB0EF009C0ADE9B2E08C91A8E349
:10018000B2E02ED88D9388278C938F918FBFFF91EB
:10019000EF91DF91CF91BF91AF919F918F917F911F
:1001A0006F915F914F913F912F911F910F91BF9050
:1001B000AF907F905F904F903F902F901F900F9047
:1001C000189508950F921F922F923F924F925F922F
:1001D0007F92AF92BF920F931F932F933F934F93B2
:1001E0005F936F937F938F939F93AF93BF93CF93BF
:1001F000DF93EF93FF938FB78F9375EE72BFC39A20
:10020000929AA3E9B1E08C918F5F8C9381E0809307
:10021000940100919401003110F009F049C0EAE224
:10022000FDE0A4E9B1E08C919927A5E9B1E02ED8D1
:100230000091950140919301040FA5E9B1E00C9361
:10024000A5E9B1E0AD90BB24A6E9B1E0AA0DBB1DC4
:100250008C9180939601A6E9B1E08C918C939FEFED
:1002600089278C93A39AA29AAA98A6E9B1E011963D
:1002700098E08E91983018F4392F992702C038E011
:100280009850881FAB9808F4AB9A00000000AA9A17
:1002900000000000AA98000000003A9591F7992309
:1002A00041F7A4E9B1E08C918F5F8C9308F4B1CF52
:1002B000939A939800919301013009F003C0A89894
:1002C000A99811C0023009F003C0A89AA9980BC0E0
:1002D000033009F003C0A898A99A05C0043009F0BA
:1002E00002C0A89AA99AA3E9B1E00C9144E0C0D851
:1002F0008C939298C398ACE8B1E08C918F5F8C930B
:10030000ACE8B1E00C9148E7B3D88C9300918C0134
:10031000003009F004C088B391E0892788BB8F9131
:100320008FBFFF91EF91DF91CF91BF91AF919F91DF
:100330008F917F916F915F914F913F912F911F917D
:100340000F91BF90AF907F905F904F903F902F9014
:100350001F900F901895929AC098E2E1F5E14FD75F
:1003600054D7E8E1F5E14BD750D7A0E7B3E0E4E597
:10037000F5E177D73CD749D7A0E7B3E0E8E6F5E168
:1003800070D735D742D7EAE7F5E139D7E6E8F5E1A6
:1003900036D73BD7E8E8F5E132D7E2E9F5E12FD7E8
:1003A00034D7E6E9F5E12BD7E0EAF5E128D72DD7F8
:1003B000E4EAF5E124D7E6EBF5E121D726D7EAEB2D
:1003C000F5E11DD7ECECF5E11AD71FD7E0EDF5E12B
:1003D00016D7EAEDF5E113D718D781E080936000D6
:1003E00000916000003410F009F011C080E0A0E638
:1003F000B0E0AD90BB24A6E9B1E0AA0DBB1D8C9383
:10040000A0E6B0E08C918F5F8C9308F4E9CF81E097
:100410008093920181E0809360000091600002303F
:1004200010F009F01EC00091600041E0041BA1E63D
:10043000B0E00C9380916000D2018C9381E001D7F1
:1004400080916000D2018C9381E0FBD635D3249655
:1004500082E0F3D6A0E6B0E08C918F5F8C9308F435
:10046000DCCF79B7716079BF8FEF8093DC018FEFBC
:100470008093DD010895579881E0EEE9F2E006E00F
:100480000A93A7E5B1E0E5D7EEE9F2E09CE20AE0E5
:1004900038E0A0EEB1E017D8AFEDB1E02C930091B9
:1004A000DF01003010F009F001C028C081E0809326
:1004B00060004091DF0100916000041710F009F026
:1004C0001DC0A0E7B3E0E0E6F0E017D790D6EEED70
:1004D000F5E195D6A0E6B0E00D9111274BE050E094
:1004E000B6D6A5EDB1E0A00FB11F83D68ED6A0E69B
:1004F000B0E08C918F5F8C9308F4DBCFA0EEB1E07D
:10050000C7D7082F063009F0BDC2E0EEF1E0A2E740
:10051000B0E09AD7E2E7F0E0A2E7B0E0C1D68FEF13
:1005200080934201A2E7B0E0E0EEF5E1B7D709F031
:100530002BC080E080934201A9E7B0E0E8EEF5E14E
:1005400090D6A7E5B1E0E4E5F5E18BD6E7E5F1E08B
:10055000A9E7B0E045D678D7A9E7B0E041D6ECEFFF
:10056000F5E17FD6A7E5B1E0E8E6F5E17AD6E7E583
:10057000F1E0A9E7B0E034D667D7A9E7B0E030D61C
:10058000EAE0F6E16ED67DC2ECE0F6E187D709F04D
:100590002BC00091DF01023009F022C0ABEEB1E0C8
:1005A000F2D6A0E6B0E00C9300916000013108F0B3
:1005B00013C080E080934201A9E7B0E0E4E1F6E1F6
:1005C00050D6A9E7B0E00CD6E0E6F0E096D68091F0
:1005D00060008093920103C085E08093420103C0D4
:1005E00084E0809342014DC2ECE2F6E157D709F076
:1005F0004CC00091DF01033009F043C080E08093DC
:100600004201ABEEB1E0BFD6A4E6B0E00D931C937F
:10061000A4E6B0E00D911C91013450E0150708F0FC
:100620002CC080E080934201A6EFB1E0F3D6A0E6B3
:10063000B0E00C9380916000A4E6B0E0AD90BD9076
:10064000A6E9B1E0AA0DBB1D8C93A9E7B0E0E4E3F5
:10065000F6E107D6A9E7B0E0C3D5E4E6F0E03FD67F
:10066000A9E7B0E0BDD5EEE3F6E1FBD5A9E7B0E040
:10067000B7D5E0E6F0E0B6D603C085E0809342014E
:1006800003C084E080934201FCC1E6E4F6E106D7B2
:1006900009F046C00091DF01023009F03DC080E062
:1006A00080934201ABEEB1E06ED6A4E6B0E00D93CC
:1006B0001C93A4E6B0E00D911C91013450E01507A5
:1006C00008F026C080E080934201A4E6B0E0AD903F
:1006D000BD90A6E9B1E0AA0DBB1D8C91809360008E
:1006E000A9E7B0E0E4E3F6E1BCD5A9E7B0E078D54E
:1006F000E4E6F0E0F4D5A9E7B0E072D5EEE3F6E188
:10070000B0D5A9E7B0E06CD5E0E6F0E06BD603C069
:1007100085E08093420103C084E080934201B1C12F
:10072000EEE4F6E1BBD609F028C080E080934201F8
:10073000A9E7B0E0E6E5F6E194D581E090E0A6E631
:10074000B0E08D939C93A6E6B0E00D911C9100342F
:1007500050E0150710F009F00FC080E0A6E6B0E009
:10076000AD90BD90A6E9B1E0AA0DBB1D8C93A6E6A5
:10077000B0E00ED508F4E7CF84C1E6E6F6E18ED608
:1007800009F034C00091DF01033009F02BC080E094
:1007900080934201ABEEB1E0F6D5A0E6B0E00C9359
:1007A000A6EFB1E0F0D5A1E6B0E00C93A9E7B0E088
:1007B000EEE6F6E156D5A9E7B0E012D5E0E6F0E0C6
:1007C0009CD580916000D2018C9381E03AD58091D4
:1007D0006100D2018C9381E034D56ED1249682E001
:1007E0002CD503C085E0809342014BC1ECE7F6E1D4
:1007F00055D609F043C10091DF01053009F03AC137
:10080000ABEEB1E0C0D5A0E6B0E00C93A6EFB1E04E
:10081000BAD5A1E6B0E00C9380E08093420100914C
:100820006000043608F022C1A6EFB1E0ACD5A1E625
:10083000B0E00C9300916100043608F013C1A1E010
:10084000B2E0E6E8F5E12AD609F066C0ABEEB1E029
:100850001FD6082F013009F024C08AE0D2018C9302
:1008600081E0EFD481E0D2018C9381E0EAD424D1FD
:10087000249682E0E2D4ABEEB1E085D5A2E6B0E00A
:100880000C9380916200D2018C9381E0DAD482E0F3
:10089000D2018C9381E0D5D40FD1249682E0CDD4BF
:1008A0003AC081E0EBEEF1E001E00A93A3E4B1E0AD
:1008B000D0D5A3E4B1E067D5A2E6B0E00C93809177
:1008C0006200D2018C9381E0BCD481E0D2018C9390
:1008D00081E0B7D4F1D0249682E0AFD482E0EBEE91
:1008E000F1E001E00A93A3E4B1E0B3D5A3E4B1E001
:1008F0004AD5A2E6B0E00C9380916200D2018C93BD
:1009000081E09FD482E0D2018C9381E09AD4D4D04C
:10091000249682E092D41CC08AE0D2018C9381E0BC
:1009200090D481E0D2018C9381E08BD4C5D0249601
:1009300082E083D48AE0D2018C9381E082D482E089
:10094000D2018C9381E07DD4B7D0249682E075D417
:10095000ACE0B2E0E6E8F5E1A1D509F066C0A6EFAB
:10096000B1E096D5082F013009F024C08AE0D20109
:100970008C9381E066D483E0D2018C9381E061D4D2
:100980009BD0249682E059D4A6EFB1E0FCD4A2E635
:10099000B0E00C9380916200D2018C9381E051D43D
:1009A00084E0D2018C9381E04CD486D0249682E0FE
:1009B00044D43AC081E0E6EFF1E001E00A93A3E419
:1009C000B1E047D5A3E4B1E0DED4A2E6B0E00C93F9
:1009D00080916200D2018C9381E033D483E0D20114
:1009E0008C9381E02ED468D0249682E026D482E0D5
:1009F000E6EFF1E001E00A93A3E4B1E02AD5A3E435
:100A0000B1E0C1D4A2E6B0E00C9380916200D201C3
:100A10008C9381E016D484E0D2018C9381E011D4D0
:100A20004BD0249682E009D41CC08AE0D2018C937A
:100A300081E007D483E0D2018C9381E002D43CD0E2
:100A4000249682E0FAD38AE0D2018C9381E0F9D334
:100A500084E0D2018C9381E0F4D32ED0249682E0FE
:100A6000ECD303C086E08093420103C085E080930D
:100A7000420103C08AE08093420103C081E0809379
:100A8000420103C082E080934201009142010030A4
:100A900010F009F001C00AC0EEEAFBE0A2E4B1E008
:100AA0008C919927F6D3A9E7B0E0DBD3A9E7B0E0B2
:100AB000A0D3ABD3579A089581E0C3D381E0C1D3CB
:100AC00081E0BFD3A885B9850D91112740E250E0A0
:100AD000BED3A7EDB1E00D931C93AE81BF818C9185
:100AE00081508C93AE81BF810D91112740E250E07F
:100AF000AED3A9EDB1E00D931C9381E0AC81BD8133
:100B00008C93AC81BD810C91003210F009F049C08A
:100B1000AC81BD810C9141E0041BABEDB1E00C93C5
:100B2000ABEDB1E00D911127A9EDB1E04D915C91D4
:100B3000040F151FA8E6B0E00D931C93EAEDFCE04E
:100B4000A8E6B0E08D919C91AA81BB819FD3A7EDCF
:100B5000B1E00D911C91ABEDB1E04D915527040F23
:100B6000151FAAE6B0E00D931C93ECE3FDE0AAE6A6
:100B7000B0E08D919C91A881B98188D3A881B98179
:100B80008C91AA81BB81AD90BB24A6E9B1E0AA0DEE
:100B9000BB1D8C93AC81BD818C918F5F8C9308F4CD
:100BA000B0CF83E0481A80E0580A269608954F4B4C
:100BB00000436F6D616E646F206E6F207265636FAE
:100BC0006E6F6369646F004C6F6E67697475642043
:100BD000636F6D616E646F206E6F2076616C696407
:100BE00061004E756D65726F206465207573756167
:100BF00072696F206E6F2076616C69646F004E754C
:100C00006D65726F20646520706172616D657472CC
:100C10006F7320696E76616C69646F004572726FE4
:100C200072206C6F6E676974756420706172616D9B
:100C30006574726F2031004572726F72206C6F6E36
:100C4000676974756420706172616D6574726F207C
:100C50003200506172616D6574726F206E6F207624
:100C6000616C69646F004552524F523800455252D0
:100C70004F522053442E20496E74656E7465206473
:100C800065206E7565766F004461746F73206967C7
:100C900075616C6573000000000003000000330004
:100CA000000033030000333300003333030033C04C
:100CB0000C00FF0FFF0F55555555333333337777FE
:100CC00077770C00FCFFCC00FCFFCC0CFCFFCCCCFD
:100CD000FCFF0C00FCFFF0FFFFFF31213222332329
:100CE0003424352536263727382839293A2A3B2B0C
:100CF0003C2C3D2D3E2E3F2F40301101120213039C
:100D00001404150516061707180819091A0A1B0BEB
:100D10001C0C1D0D1E0E1F0F2010007C7874706CB3
:100D20006864605C5854504C4844003C3834302C63
:100D30002824201C1814100C0804000007E00FF0F1
:100D40001C381818181818181818181818181818FF
:100D50001818181818181C380FF007E0006000E089
:100D600001E0036006600C600060006000600060ED
:100D700000600060006000600060006007E00FF04D
:100D80001C381818001800180038007000E001C066
:100D9000038007000E001C001FF81FF81FE01FF063
:100DA0000038001800180018003001F001F0003081
:100DB00000180018001800381FF01FE01800183045
:100DC000183018301830183018301C300FF007F079
:100DD0000030003000300030003000301FF81FF8C5
:100DE00018001800180018001FE01FF00038001845
:100DF00000180018001800381FF01FE007F00FF06F
:100E00001C0018001800180018001BE01FF01C3808
:100E10001818181818181C380FF007E01FF01FF0EA
:100E20000030003000E000C000C0018001800100FF
:100E300003000300030006000600060007E00FF0B1
:100E40001C381818181818180C3007E007E00C3078
:100E50001818181818181C380FF007E007E00FF0E2
:100E60001C381818181818181C380FF807D800184C
:100E700000180018001800380FF00FE00000000004
:100E80000000000000000000000000000000000062
:100E90000000000000000000000000000000000052
:100EA0000000000000000000000000000000000042
:100EB00007E00FF01C381818181818181818181808
:100EC000181818181818181818181C380FF007E0F8
:100ED000006000E001E0036006600C6000600060FC
:100EE0000060006000600060006000600060006002
:100EF00007E00FF01C381818181800180038007098
:100F000000E001C0038007000E001C001FF81FF85E
:100F100007E00FF01C38181800180018003001E026
:100F200001E000300018001818181C380FF007E016
:100F300018001830183018301830183018301C309D
:100F40000FF007F00030003000300030003000308B
:100F50001FF81FF818001800180018001FE01FF0F5
:100F6000003800180018001818381C380FF007E077
:100F700007E00FF01C3818181800180018001BE0C4
:100F80001FF01C381818181818181C380FF007E034
:100F90001FF01FF00030003000E000C000C00180F2
:100FA00001800100030003000300060006000600A4
:100FB00007E00FF01C381818181818180C3007E044
:100FC00007E00C301818181818181C380FF007E034
:100FD00007E00FF01C381818181818181C380FF8EC
:100FE00007D800180018001818181C380FF007E070
:100FF00000000000000000000000000000000000F1
:1010000000000000000000000000000000000000E0
:1010100000000000000000000000000000000000D0
:101020000000000080E08093960181E080939401AD
:1010300000919401003110F009F026C0A39AA29A01
:10104000AA98A6E9B1E0119698E08E91983018F42C
:10105000392F992702C038E09850881FAB9808F4C0
:10106000AB9A00000000AA9A00000000AA980000B5
:1010700000003A9591F7992341F7A4E9B1E08C91EA
:101080008F5F8C9308F4D4CF939A939864D9E4E853
:10109000F6E1B5D0BAD0AEEDB1E08C9186FB0EF0A2
:1010A0000DC07091DE017F7B7093DE01EAE8F6E10E
:1010B000A6D0AEE9B2E09DD0A8D0DDD9ACE6B0E0D4
:1010C0008C9181FB0EF063C070916C007D7F7093FA
:1010D0006C00E0E9F6E193D0AEE9B2E08AD095D0B9
:1010E000AEE9B2E0D5D1082F043009F050C084E059
:1010F000EEE9F2E001E00A93ADE6B0E0AAD1ADE698
:10110000B0E041D1A0E7B0E00C93A0E7B3E0E0E7A6
:10111000F0E0F3D06CD079D080917000D2018C9344
:1011200081E08FD082E0D2018C9381E08AD0C4DC50
:10113000249682E082D083E0EEE9F2E001E00A93B7
:10114000ADE6B0E086D1ADE6B0E01DD1A1E7B0E0FC
:101150000C93A0E7B3E0E1E7F0E0CFD048D055D062
:1011600000917100003009F003C08AE080937100A3
:1011700080917100D2018C9381E063D081E0D20133
:101180008C9381E05ED098DC249682E056D083CFA9
:10119000ED91FC91EF5FFF4FFC93EE93089504D027
:1011A00056D000FC0CD008950024E89457FF02C0EC
:1011B00009D0689400F80BD010F80124089502D0EB
:1011C00009D00895509540954F5F5F4F0895E8947A
:1011D00017FF0895009510950F5F1F4F68940895AD
:1011E0008F938D918823E9F711978F910895A0E748
:1011F000B3E08D91882311F00BD0FBCF089536D04A
:10120000802D11F005D0FBCF08958DE001D08AE04C
:101210005D9BFECF8CB908953197F1F708956894DE
:1012200062F80895E89462F808950191119121916E
:1012300030810895481A590A0895481A8827580A8B
:10124000089599275A924A92480E591E08950F926E
:10125000B801469F8001479F100D569F100D0F90BB
:10126000089504D00D920020E1F70895C8953196B5
:101270000020089591E005C092E003C094E001C011
:1012800098E0F4DF0D929A95E1F70895E80FF91FC1
:10129000F1CF0196019719F0E9DFF1F7FBCF08953F
:1012A000819104D08D938823D9F70895813618F061
:1012B0008B3708F48F7D0895040F151F261F371FE5
:1012C0000895000F111F221F331F089500951095D8
:1012D000209530950F5F1F4F2F4F3F4F089501917D
:1012E00010810DC0A2DF0DC0A0DF10C001911081E0
:1012F00017FF05C03FEF2FEF04C000811127222701
:10130000332737FF03C0E2DF8DE28D93CF92DF9268
:10131000EF92AA24BB24CC24DD24EE2440E2EAE0B0
:10132000FF2755E093E38081890F87FD9F7083FD40
:10133000907F891B81935A95A9F7C3DFAA1CBB1C18
:10134000CC1CDD1CEE1C4A9551F7E894EFE0FF271A
:1013500082910CD0EB30E0F71EF068948A2D0AD011
:1013600088278D93EF90DF90CF900895982F8295E6
:1013700001D0892F8F70805D26F0803309F40895A5
:1013800068948D93089500271127222733271DD0B5
:101390008A3328F4803318F005D015D0F9CF0EF435
:1013A00095CF089580538F93402F512F622F732F25
:1013B00088DF87DF81DF85DF8F919927080F191F6D
:1013C000291F391F08958D910895E894FCDF80321C
:1013D000E9F38B32D9F38930C9F38D3211F4689473
:1013E000F2CF089541E003C042E001C044E0E40FC1
:1013F0008827F81F8291982F829505D0892F03D0D6
:101400004A95C1F71EC08F708A3008F0895F805DF1
:101410008D93089500271127222733278D91882344
:1014200079F04FDF4EDF4DDF4CDF40DF815408F4B1
:10143000895F865F080F8827181F281F381FEECF87
:10144000089588278D93089581918D938823E1F7DE
:10145000089509919191992351F08A95D9F731977F
:10146000002329F081918D930A958823C9F7E9CF4C
:10147000FF93881BF9E0001FFA9511F4FF9108957E
:10148000881F841B18F4840F8894F5CF0894F3CF39
:101490008FEF83959D919923E1F70895689401C09A
:1014A000E894AF93BF938D9116F0919102C0DEDE68
:1014B000902D891718F011F48823A9F7BF91AF91E7
:1014C0000895689401C0E8942227102F231709F487
:1014D00008951EF4CBDE802D01C08191803081F013
:1014E000891741F070E08D931A9599F7239571E073
:1014F0001D93EBCF01D0E9CF703011F0772708951D
:10150000772331F42395882713958D931A95E9F75E
:101510000895616E647973002A2A2A2A2A2A2A2ABF
:101520002A2A2A2A20445249564552206D61747253
:10153000697A204C45447320503130283152292D8E
:101540005637303143202A2A2A2A2A2A2A2A2A2AA6
:101550002A2A000033302D30382D323031382031F6
:10156000353A34343A3430003234535F5031305FDE
:101570004D41494E2E42415300004E756D6D6174D0
:1015800072697A3D000031004C6F6E676275663D8E
:101590000000363400004C6F6E676461743D0000DB
:1015A000333200004C6F6E676461745F6D61735F0E
:1015B000756E6F3D0000333300004C6F6E676275CF
:1015C000665F6D61735F756E6F3D000036350000BC
:1015D0004E756D74787365723D00313600003A00C7
:1015E0004C4545564657000056657273696F6E202C
:1015F00046573A204665636861203C003E2C2041F6
:1016000072636869766F203C00003E005345544C7D
:1016100045440000536520636F6E666967757261AB
:10162000207365746C65642061200000534554424A
:10163000554600004275666672616D2800002920DB
:101640003D20264820004C45454255460000534564
:10165000544345520000456E6365726172206275A5
:10166000666665720000534554444947000054655E
:1016700073742044696769746F20000053455454A3
:10168000414200004D41494E0000534552313D005A
:06169000545832343D0005
:00000001FF
