:100000000C9434000C94BC010C94F9011895000078
:10001000189500001895000018950000189500002C
:10002000189500001895000018950000189500001C
:10003000189500000C947A0118950000189500009E
:100040000C942201189500000C949500189500005E
:1000500018950000189500001895000018950000EC
:1000600018950000189500008FEF8DBFC0EBE8E2F7
:100070004E2E88E08EBFD8E0F8E05F2EA89584B7BA
:10008000082E877F84BF88E1992780936000909332
:100090006000EEEFF7E0A0E0B1E088278D933197A4
:1000A000E9F780EA8093C40081E08093C50088E18D
:1000B0008093C10072E07093C0006624259A219A53
:1000C0005498529853985A9A5B9A5C9A83E085BDEB
:1000D00080E084BD70916E00716070936E0083E06B
:1000E00085BD80E08093800085E0809381007091E1
:1000F0006F00716070936F0085E080938100709154
:10010000C10070687093C100809169008C7F82602B
:100110008093690080916900837F88608093690083
:10012000E89AE99A78940C948D040F921F922F927A
:100130003F924F925F927F92AF92BF920F931F9325
:100140002F933F934F935F936F937F938F939F93DF
:10015000AF93BF93CF93DF93EF93FF938FB78F93BB
:10016000AEEBB5E08091C6008C9384E2482F0091FD
:10017000BE05041711F00C94C80070911802746049
:1001800070931802A5EFB4E088278C930C940501B6
:100190000D3011F00C94ED00A8E1B2E08C9182FBDF
:1001A00016F00C94EB00709118027B7F709318028C
:1001B00080E0A5EFB4E00E9414068D9388278C930D
:1001C000E5EFF4E0AFEBB5E00E941A07709118027A
:1001D0007260709318020C9405010F3118F011F041
:1001E0000C94F4000C940501A8E1B2E08C9182FB20
:1001F00016F00C940501AEEBB5E08C91A5EFB4E0E0
:100200000E9414068D9388278C938F918FBFFF9146
:10021000EF91DF91CF91BF91AF919F918F917F919E
:100220006F915F914F913F912F911F910F91BF90CF
:10023000AF907F905F904F903F902F901F900F90C6
:10024000189508950F921F922F923F924F925F92AE
:100250007F92AF92BF920F931F932F933F934F9331
:100260005F936F937F938F939F93AF93BF93CF933E
:10027000DF93EF93FF938FB78F9374E676BDAFE173
:10028000B2E00D911C910F5F1F4FAFE1B2E00D93F3
:100290001C93ADE1B2E04D915C91AFE1B2E00D9104
:1002A0001C910417150711F00C945E0180E283B9CC
:1002B00080E090E0AFE1B2E08D939C938F918FBF8F
:1002C000FF91EF91DF91CF91BF91AF919F918F916E
:1002D0007F916F915F914F913F912F911F910F915E
:1002E000BF90AF907F905F904F903F902F901F9066
:1002F0000F9018950F921F922F923F924F925F92FC
:100300007F92AF92BF920F931F932F933F934F9380
:100310005F936F937F938F939F93AF93BF93CF938D
:10032000DF93EF93FF938FB78F9387EF92EC9093C8
:100330008500809384007091180270687093180291
:100340008F918FBFFF91EF91DF91CF91BF91AF91CF
:100350009F918F917F916F915F914F913F912F91DD
:100360001F910F91BF90AF907F905F904F903F9003
:100370002F901F900F9018950F921F922F923F92DF
:100380004F925F927F92AF92BF920F931F932F93E2
:100390003F934F935F936F937F938F939F93AF930D
:1003A000BF93CF93DF93EF93FF938FB78F932D9AE4
:1003B000709118027061709318028F918FBFFF9136
:1003C000EF91DF91CF91BF91AF919F918F917F91ED
:1003D0006F915F914F913F912F911F910F91BF901E
:1003E000AF907F905F904F903F902F901F900F9015
:1003F00018950F921F922F923F924F925F927F9289
:10040000AF92BF920F931F932F933F934F935F939E
:100410006F937F938F939F93AF93BF93CF93DF930C
:10042000EF93FF938FB78F932D9A7091180270629C
:10043000709318028F918FBFFF91EF91DF91CF9151
:10044000BF91AF919F918F917F916F915F914F91EC
:100450003F912F911F910F91BF90AF907F905F9030
:100460004F903F902F901F900F9018952D98E4E09B
:10047000FFE00E9423060E942A06A0E1B8E0ECE219
:10048000FFE00E9461060E941B060E942A06A0E16E
:10049000B8E0E0E4FFE00E9461060E941B060E94B3
:1004A0002A06A0E1B8E0E8E4FFE00E9461060E94AD
:1004B0001B060E942A0681E08093270288E1809330
:1004C0001C0288EE91E0ADE1B2E08D939C937091B7
:1004D00018027F7B7093180280911C02809319028E
:1004E000009119024AE00E942F07ABE1B2E00C93A1
:1004F00000911B024AE0049FAAE1B2E00C92009135
:10050000190240911A02041BAAE1B2E00C93A9E17E
:10051000B2E0BA93AA930E94A402229670911802A4
:100520007F7E70931802299AE1E0F0E00E94340681
:100530002998E1E0F0E00E943406299AE1E0F0E039
:100540000E94340629980895ECE5FFE00E942306F6
:10055000A881B9810C910A3010F00C94BF02E0E63A
:10056000FFE00E942306E881F981A0E1B8E00E9443
:10057000A2060E941B060E942A060C94C902E8816A
:10058000F981A0E1B8E00E94A2060E941B060E9429
:100590002A06ECE5FFE00E942306A881B9810C91B0
:1005A0000A3010F00C94E402E0E6FFE00E9423061B
:1005B000E881F981A0E1B8E00E94A2060E941B0632
:1005C0000E942A060C94EE02E881F981A0E1B8E0CD
:1005D0000E94A2060E941B060E942A060895E2E6D7
:1005E000FFE00E942306AFEBB5E00E941D060E94CB
:1005F0002A0681E0EFEBF5E006E00A93A3EEB1E016
:100600000E941F07EFEBF5E09CE204E132E2ABE26F
:10061000B2E00E945B07AAE2B2E02C9300912A02AA
:10062000003018F011F00C9417030C94470381E08C
:100630008093000140912A0200910001041718F0F4
:1006400011F00C944703E0E0F1E0A0E1B8E00E9473
:10065000A2060E941B06E4E6FFE00E942306A0E03B
:10066000B1E00D91112745E150E00E945706A6E147
:10067000B2E0A00FB11F0E941D060E942A06A0E052
:10068000B1E08C918F5F8C9310F40C941A03ABE261
:10069000B2E00E943F07082F063011F00C94DF03F0
:1006A000EBE2F2E0A1E0B1E00E941A07E1E0F1E044
:1006B000A1E0B1E00E9473068FEF8093D101A1E029
:1006C000B1E0E6E6FFE00E94450711F00C949F03BD
:1006D00080E08093D101A8E0B1E0EEE6FFE00E9467
:1006E0006106A3EEB1E0ECE2FFE00E946106E3EEFA
:1006F000F1E0A8E0B1E00E9414060E941A07A8E009
:10070000B1E00E941406E2E8FFE00E946106A3EE59
:10071000B1E0E8E4FFE00E946106E3EEF1E0A8E06A
:10072000B1E00E9414060E941A07A8E0B1E00E94FE
:100730001406E0E9FFE00E9461060C94DD03E2E9A3
:10074000FFE00E94450711F00C94DA0300912A02A1
:10075000023011F00C94D503A0E4B2E00E94E80648
:10076000A0E0B1E00C9300910001013110F00C9475
:10077000D00380E08093D101A8E0B1E0EAE9FFE096
:100780000E946106E0E0F1E0A8E0B1E00E941406FA
:100790000E94A20680910001809327020C94D3034B
:1007A00085E08093D1010C94D80384E08093D1013B
:1007B0000C94DD0381E08093D1010C94E20382E08C
:1007C0008093D1010091D101003018F011F00C9408
:1007D000EB030C94F703ECEFF7E0A1EDB1E08C91A3
:1007E00099270E946B06A8E0B1E00E946106A8E08C
:1007F000B1E00E941D060E942A0608954F4B004357
:100800006F6D616E646F206E6F207265636F6E6FC7
:100810006369646F004C6F6E676974756420636F01
:100820006D616E646F206E6F2076616C696461002B
:100830004E756D65726F20646520757375617269A0
:100840006F206E6F2076616C69646F004E756D6508
:10085000726F20646520706172616D6574726F7370
:1008600020696E76616C69646F004572726F7220E8
:100870006C6F6E676974756420706172616D657408
:10088000726F2031004572726F72206C6F6E6769F3
:1008900074756420706172616D6574726F203200CE
:1008A000506172616D6574726F206E6F2076616C3D
:1008B00069646F004552524F5238004552524F52B0
:1008C0002053442E20496E74656E74652064652043
:1008D0006E7565766F0000000000030000003300B5
:1008E000000033030000333300003333030033C010
:1008F0000C00FF0FFF0F55555555333333337777C2
:1009000077770C00FCFFCC00FCFFCC0CFCFFCCCCC0
:10091000FCFF0C00FCFFF0FFFFFF0E943602A8E185
:10092000B2E08C9181FB16F00C94A7047091180230
:100930007D7F70931802E2EBFFE00E942306AFEB8D
:10094000B5E00E941D060E942A060E94EF02A8E15F
:10095000B2E08C9186FB16F00C943405A8E1B2E06D
:100960008C9187FB16F00C9432058091190281500E
:1009700080931902009119024AE00E942F07ABE10F
:10098000B2E00C9300911B024AE0049FAAE1B2E09E
:100990000C920091190240911A02041BAAE1B2E0E4
:1009A0000C93A9E1B2E0BA93AA930E94A402229602
:1009B00000911902003011F00C942D05709118026D
:1009C0007F7B7093180284EF91E00E944306E8EB6E
:1009D000FFE00E9423060E942A06E8EBFFE00E9447
:1009E00023060E942A06E8EBFFE00E9423060E94ED
:1009F0002A06E8EBFFE00E9423060E942A06299AB5
:100A0000E1E0F0E00E943406299880911C02809376
:100A1000190288EE91E0ADE1B2E08D939C930091D4
:100A200019024AE00E942F07ABE1B2E00C9300915B
:100A30001B024AE0049FAAE1B2E00C920091190265
:100A400040911A02041BAAE1B2E00C93A9E1B2E0C2
:100A5000BA93AA930E94A4022296709118027F77FB
:100A6000709318020C944705A8E1B2E08C9187FBC3
:100A700016F00C944705709118027F777093180256
:100A8000A9E1B2E0BA93AA930E94A4022296A8E137
:100A9000B2E08C9185FB16F00C94820570911802DF
:100AA0007F7D7093180288E290E00E9443064B9984
:100AB0000C948205ECEBFFE00E9423060E942A06BC
:100AC00080911C0280931902009119024AE00E9451
:100AD0002F07ABE1B2E00C9300911B024AE0049FA8
:100AE000AAE1B2E00C920091190240911A02041B93
:100AF000AAE1B2E00C93A9E1B2E0BA93AA930E94F2
:100B0000A4022296A8E1B2E08C9184FB16F00C942A
:100B1000C505709118027F7E7093180288E290E0FC
:100B20000E9443064A990C94C505E0ECFFE00E9440
:100B300023060E942A0600274427A8E1B2E08C91F0
:100B400086FB00F94160042700FBA8E1B2E08C912C
:100B500086F98C93A8E1B2E08C9186FB16F00C9498
:100B6000B90580E990E0ADE1B2E08D939C930C94DF
:100B7000BF0588EE91E0ADE1B2E08D939C9380E0FB
:100B800090E0AFE1B2E08D939C934C990C94F0050A
:100B900088E290E00E9443064C990C94F0058EE0A8
:100BA00080931902009119024AE00E942F07ABE1DD
:100BB000B2E00C9300911B024AE0049FAAE1B2E06C
:100BC0000C920091190240911A02041BAAE1B2E0B2
:100BD0000C93A9E1B2E0BA93AA930E94A4022296D0
:100BE0000C948F0405D00E94570600FC0CD0089589
:100BF0000024E89457FF02C009D0689400F80BD095
:100C000010F80124089502D009D008955095409518
:100C10004F5F5F4F0895E89417FF08950095109572
:100C20000F5F1F4F689408958F938D918823E9F784
:100C300011978F910895A0E1B8E08D91882311F06C
:100C40000CD0FBCF08950E946706802D11F005D0CF
:100C5000FACF08958DE001D08AE00090C00005FE33
:100C6000FCCF8093C600089588EE93E00CD03197B6
:100C7000D9F708953197F1F70895689462F80895C7
:100C8000E89462F80895EF93FF93EE27E82BE92BA1
:100C900031F0E0EAFFE03197F1F70197D1F7FF91EA
:100CA000EF910895019111912191308108950F9252
:100CB000B801469F8001479F100D569F100D0F9061
:100CC00008950E9467060D920020D9F70895C895EF
:100CD0003196002008950196019721F00E94670641
:100CE000E9F7FACF0895819104D08D938823D9F73D
:100CF0000895813618F08B3708F48F7D0895040F1E
:100D0000151F261F371F0895000F111F221F331FA5
:100D1000089500951095209530950F5F1F4F2F4F28
:100D20003F4F0895019110810FC00E9452060EC0DE
:100D30000E94520610C00191108117FF05C03FEFBD
:100D40002FEF04C0008111272227332737FF03C06C
:100D5000E0DF8DE28D93CF92DF92EF92AA24BB2445
:100D6000CC24DD24EE2440E2EAE0FF2755E093E3C3
:100D70008081890F87FD9F7083FD907F891B819300
:100D80005A95A9F7C1DFAA1CBB1CCC1CDD1CEE1CAC
:100D90004A9551F7E894EFE0FF2782910CD0EB30B1
:100DA000E0F71EF068948A2D0AD088278D93EF9083
:100DB000DF90CF900895982F829501D0892F8F7062
:100DC000805D26F0803309F4089568948D9308952A
:100DD00000271127222733271DD08A3328F4803398
:100DE00018F005D015D0F9CF0EF493CF08958053A5
:100DF0008F93402F512F622F732F86DF85DF7FDF88
:100E000083DF8F919927080F191F291F391F089514
:100E10008D910895E894FCDF8032E9F38B32D9F3A9
:100E20008930C9F38D3211F46894F2CF0895882780
:100E30008D93089581918D938823E1F70895099109
:100E40009191992359F08A95D9F73197002331F080
:100E500081918D930A958823C9F70895E8CFFF9370
:100E6000881BF9E0001FFA9511F4FF910895881F7F
:100E7000841B18F4840F8894F5CF0894F3CF8FEF78
:100E800083959D919923E1F70895689401C0E894B2
:100E9000AF93BF938D9116F0919103C00E946706A6
:100EA000902D891718F011F48823A1F7BF91AF9105
:100EB0000895689401C0E8942227102F231709F49D
:100EC000089526F40E946706802D01C0819180302C
:100ED00081F0891741F070E08D931A9591F7239571
:100EE00071E01D93EACF01D0E8CF703011F0772781
:100EF0000895772331F42395882713958D931A95B8
:100F0000E9F708952A2A2A2A2A2A2A2A2A2A2A2A6C
:100F10002044524956455220415544494F202A2ADF
:100F20002A2A2A2A2A2A2A2A2A2A000032332D315A
:100F3000302D323032312031363A32353A353900BF
:100F4000302E302E3235000054583234534547414C
:100F5000524455494E4F2E42415300002430300038
:100F6000300024003A004C4545564657000056656F
:100F70007273696F6E2046573A2046656368612038
:100F80003C003E2C204172636869766F203C000073
:100F90003E005345544C45440000536520636F6E3A
:100FA000666967757261207365746C656420612081
:100FB0000000534552313D00245350004931000098
:040FC00049300000B4
:00000001FF
